S01700004763634170706C69636174696F6E312E737265635B
S11300000C9434000C9449000C9449000C9449005D
S11300100C9449000C9449000C9449000C94490038
S11300200C9449000C9449000C9449000C94490028
S11300300C9449000C9449000C9449000C94490018
S11300400C9449000C9449000C9449000C94490008
S11300500C9449000C9449000C9449000C944900F8
S11300600C9449000C94490011241FBECFEFD8E032
S1130070DEBFCDBF11E0A0E0B1E0ECE5F1E002C0ED
S113008005900D92A836B107D9F70E947D000C9413
S1130090AC000C9400008AB182608AB98AB18E7F68
S11300A08AB91092C00088E98093C10086E08093E9
S11300B0C20087E690E09093C5008093C400089541
S11300C08091C00088231CF48091C600089580E0CC
S11300D008959091C00095FFFCCF8093C6000895C9
S11300E0CF93DF93EC0103C00E94690021968881BD
S11300F08111FACFDF91CF91089587B1836087B9D9
S11301000E944B0080E091E00E9470008FE191E03A
S11301100E9470000E946000C82F87B190E00E9486
S11301206000CC23B9F3C13319F0C23359F0F2CFD4
S113013081E088B98EE291E00E94700087B10E944C
S11301406900E8CF82E088B98BE491E00E947000F6
S10F015087B10E946900DECFF894FFCF55
S113015C76616C6F7220646520706F74656E636970
S113016C6F6D6574726F2031206F20320A0D00643C
S113017C69676974652031206F20320A0D0076613D
S113018C6C6F722064656C20706F74656E63696F3C
S113019C6D6574726F20313A0A0D0076616C6F7262
S11301AC2064656C20706F74656E63696F6D657423
S10B01BC726F20323A0A0D00B3
S9030000FC
